:1000000009C021C020C01FC01EC01DC01CC01BC015
:100010005FC019C011241FBECFE9CDBF10E0A0E61C
:10002000B0E0E2E8F2E002C005900D92A636B1071A
:10003000D9F710E0A6E6B0E001C01D92AB36B107DB
:10004000E1F75AD01CC1DCCF85B7877E806185BFC0
:1000500085B7806285BF85B7806285BF889585B783
:100060008F7D85BF85B78F7D85BF089584B7877FD6
:1000700084BF81B5886181BD81B5816681BD789479
:10008000089580E886B9369A349BFECF60E070E030
:1000900020E030E0369A349BFECF94B185B1582FE2
:1000A00040E0FA01E90FF11D2E0F3F1F6F5F7F4FF8
:1000B0006830710579F716B883E0359527958A95EC
:1000C000E1F7C901089582E087B983E086B9089510
:1000D0001F920F920FB60F9211248F939F9381E07E
:1000E00090E090936100809360009F918F910F90BA
:1000F0000FBE0F901F901895AF92BF92CF92DF92D4
:10010000EF92FF920F931F93CF93DF9380E385BF0E
:1001100084B7877F84BF81B5886181BD81B58166E1
:1001200081BD789482E0A82E03E0B02ECC24C39445
:100130001FE0D12EC1E0D0E0B4E8EB2EB3E0FB2EFF
:1001400001E010E08091600090916100019791F4CE
:10015000A7B8B6B896DF80936600909164008917BF
:1001600018F4C0926A0002C010926A0010926100F6
:100170001092600080916A00813009F06CC0D7BA9B
:100180008091620090916300892B21F410936300A9
:10019000009362002091620030916300832F9927C1
:1001A00087FD90958827990F881F992736FF02C0F1
:1001B0008C279D2734FF02C08C279D2723FF02C078
:1001C0008C279D27B901660F771F680F791F7093E1
:1001D00063006093620070936900609368001092FE
:1001E0006700AB0130E02BC04115510511F441E02F
:1001F00050E0852F992787FD90958827990F881FB4
:10020000992756FF02C08C279D2754FF02C08C27D8
:100210009D2743FF02C08C279D27440F551F480F81
:10022000591F6417750750F428B3CE01032E02C07E
:10023000880F991F0A94E2F7282728BB3F5F3430C4
:1002400098F2509363004093620030936700C701B7
:100250000197F1F777CF18BA17BA85B7877E806113
:1002600085BF85B7806285BF85B7806285BF889569
:1002700085B78F7D85BF85B78F7D85BF63CFF894A8
:02028000FFCFAE
:0602820001000A000A0061
:00000001FF
